{
  "contractName": "PaymentProcessor",
  "abi": [
    {
      "inputs": [
        {
          "internalType": "address",
          "name": "adminAddress",
          "type": "address"
        },
        {
          "internalType": "address",
          "name": "daiAddress",
          "type": "address"
        }
      ],
      "stateMutability": "nonpayable",
      "type": "constructor"
    },
    {
      "anonymous": false,
      "inputs": [
        {
          "indexed": false,
          "internalType": "address",
          "name": "payer",
          "type": "address"
        },
        {
          "indexed": false,
          "internalType": "uint256",
          "name": "amount",
          "type": "uint256"
        },
        {
          "indexed": false,
          "internalType": "uint256",
          "name": "paymentId",
          "type": "uint256"
        },
        {
          "indexed": false,
          "internalType": "uint256",
          "name": "date",
          "type": "uint256"
        }
      ],
      "name": "PaymentDone",
      "type": "event"
    },
    {
      "inputs": [],
      "name": "admin",
      "outputs": [
        {
          "internalType": "address",
          "name": "",
          "type": "address"
        }
      ],
      "stateMutability": "view",
      "type": "function",
      "constant": true
    },
    {
      "inputs": [],
      "name": "dai",
      "outputs": [
        {
          "internalType": "contract IERC20",
          "name": "",
          "type": "address"
        }
      ],
      "stateMutability": "view",
      "type": "function",
      "constant": true
    },
    {
      "inputs": [
        {
          "internalType": "uint256",
          "name": "amount",
          "type": "uint256"
        },
        {
          "internalType": "uint256",
          "name": "paymentId",
          "type": "uint256"
        }
      ],
      "name": "pay",
      "outputs": [],
      "stateMutability": "nonpayable",
      "type": "function"
    }
  ],
  "bytecode": "0x608060405234801561000f575f80fd5b506040516105a03803806105a083398181016040528101906100319190610115565b815f806101000a81548173ffffffffffffffffffffffffffffffffffffffff021916908373ffffffffffffffffffffffffffffffffffffffff1602179055508060015f6101000a81548173ffffffffffffffffffffffffffffffffffffffff021916908373ffffffffffffffffffffffffffffffffffffffff1602179055505050610153565b5f80fd5b5f73ffffffffffffffffffffffffffffffffffffffff82169050919050565b5f6100e4826100bb565b9050919050565b6100f4816100da565b81146100fe575f80fd5b50565b5f8151905061010f816100eb565b92915050565b5f806040838503121561012b5761012a6100b7565b5b5f61013885828601610101565b925050602061014985828601610101565b9150509250929050565b610440806101605f395ff3fe608060405234801561000f575f80fd5b506004361061003f575f3560e01c8063ef48eee614610043578063f4b9fa751461005f578063f851a4401461007d575b5f80fd5b61005d60048036038101906100589190610219565b61009b565b005b61006761019a565b60405161007491906102d1565b60405180910390f35b6100856101bf565b604051610092919061030a565b60405180910390f35b60015f9054906101000a900473ffffffffffffffffffffffffffffffffffffffff1673ffffffffffffffffffffffffffffffffffffffff166323b872dd335f8054906101000a900473ffffffffffffffffffffffffffffffffffffffff16856040518463ffffffff1660e01b815260040161011893929190610332565b6020604051808303815f875af1158015610134573d5f803e3d5ffd5b505050506040513d601f19601f82011682018060405250810190610158919061039c565b507f78eaebe37a28490ff43ed0e95bdc47de1587156ac0069b652e1d2d9f42464e983383834260405161018e94939291906103c7565b60405180910390a15050565b60015f9054906101000a900473ffffffffffffffffffffffffffffffffffffffff1681565b5f8054906101000a900473ffffffffffffffffffffffffffffffffffffffff1681565b5f80fd5b5f819050919050565b6101f8816101e6565b8114610202575f80fd5b50565b5f81359050610213816101ef565b92915050565b5f806040838503121561022f5761022e6101e2565b5b5f61023c85828601610205565b925050602061024d85828601610205565b9150509250929050565b5f73ffffffffffffffffffffffffffffffffffffffff82169050919050565b5f819050919050565b5f61029961029461028f84610257565b610276565b610257565b9050919050565b5f6102aa8261027f565b9050919050565b5f6102bb826102a0565b9050919050565b6102cb816102b1565b82525050565b5f6020820190506102e45f8301846102c2565b92915050565b5f6102f482610257565b9050919050565b610304816102ea565b82525050565b5f60208201905061031d5f8301846102fb565b92915050565b61032c816101e6565b82525050565b5f6060820190506103455f8301866102fb565b61035260208301856102fb565b61035f6040830184610323565b949350505050565b5f8115159050919050565b61037b81610367565b8114610385575f80fd5b50565b5f8151905061039681610372565b92915050565b5f602082840312156103b1576103b06101e2565b5b5f6103be84828501610388565b91505092915050565b5f6080820190506103da5f8301876102fb565b6103e76020830186610323565b6103f46040830185610323565b6104016060830184610323565b9594505050505056fea2646970667358221220d09dc664556321b6c227a36023153e4ae7606179746036054d990b30a47e4cf364736f6c63430008140033",
  "immutableReferences": {},
  "source": "// SPDX-License-Identifier: MIT\r\npragma solidity ^0.8.19;\r\n\r\nimport '@openzeppelin/contracts/token/ERC20/IERC20.sol';\r\n\r\ncontract PaymentProcessor{\r\n    address public admin;\r\n    IERC20 public dai;\r\n\r\n    event PaymentDone(\r\n        address payer,\r\n        uint amount,\r\n        uint paymentId,\r\n        uint date\r\n    );\r\n\r\n    constructor(address adminAddress, address daiAddress) public {\r\n        admin = adminAddress;\r\n        dai = IERC20(daiAddress);\r\n    }\r\n\r\n    function pay(uint amount, uint paymentId) external{\r\n        dai.transferFrom(msg.sender, admin, amount);\r\n        emit PaymentDone(msg.sender, amount, paymentId, block.timestamp);\r\n    }\r\n}",
  "sourcePath": "D:\\VTest1\\smart_contract\\contracts\\PaymentProcessor.sol",
  "compiler": {
    "name": "solc",
    "version": "0.8.20+commit.a1b79de6.Emscripten.clang"
  },
  "schemaVersion": "3.4.16",
  "updatedAt": "2024-08-11T11:35:49.066Z",
  "networkType": "ethereum",
  "devdoc": {
    "kind": "dev",
    "methods": {},
    "version": 1
  },
  "userdoc": {
    "kind": "user",
    "methods": {},
    "version": 1
  }
}